:020000040000fa
:080000000002040000000000f2
:020000040000fa
:100400004fdd24000eff27000e01880000000000d1
:100410000c00070040eb2500010020000f00070042
:10042000000020000000e000020032000000020096
:100430000000000082560200000000000040da00c8
:100440000000fe0080bf20000000e000020032003b
:10045000002020009001880000000600a102880012
:10046000800078000000eb001a003700e2804000b6
:1004700054a0b4009101ba00e280400054a0b4003e
:100480009102ba00e280400054a0b4000002eb00e8
:10049000472bde00f507b200a6018800602ce100c2
:1004a00008003a000049eb000201e80002003900b0
:1004b0003420ec0002f0a0008301e900f9ff3e00c7
:1004c000040037006128e100010032000082eb00e7
:1004d000040007001101ba000200e000e3ff3a0047
:1004e0000000060004d0a300e20f49001c00390000
:1004f000810278003549ba000201e80002003900a3
:100500003420ec0002f0a0008301e9000f0032006b
:100510002549ba000201e800020039003420ec004d
:1005200002f0a0008301e900080032000400e000ae
:100530000600320015c9ba000201e80002003900c5
:100540003420ec0002f0a0008301e9008180e80083
:1005500054a0b4000300e000e2ff3a0000000600ef
:100560009102ba00055978008301e900f7ff3200d3
:10057000c82ade00055978008301e900f3ff320044
:100580000400e000f1ff320011d9ba00eeff37009d
:100590000040da000000fe000a00fa008001780046
:1005a000e20f500028003e00906e8200e10f5000e4
:1005b00008003200802320000000e0000500320027
:1005c00004232000252320004623200080017800fa
:1005d00004003700042220002522200046222000ab
:1005e00083222000144090000004e0000400350045
:1005f0008009eb00144090000074a00010429800a5
:10060000154090000028a30003003a001540900018
:100610000024a000904298008001eb000700370002
:10062000154090000008a300fdff320063c0780071
:100630000000fb00000b78008301e800828f51006e
:10064000f7ff3a000800370030002000b0bf9f00dd
:10065000c3bf9f00d1bf9f00e2bf9f006a805700c9
:1006600000c0da006fb99700020078000080fa003d
:1006700000000600881f7800000478005001be00ca
:100680004000be000400400085804800060149008b
:1006900087814900009cbe000294be000400e10076
:1006a0000588e1000690e1000798e10002003100b2
:1006b000680044001008e8004f04780000000600bd
:1006c000f4874700889fbe008a9fbe008c9fbe00b3
:1006d0008e1f78000205be000004be00d4b79f0044
:1006e000e5b79f00f6b79f0087bf9f000000eb00b3
:1006f000c0b79f00b0b79f00a0b79f0090b79f0002
:1007000080b79f000d042000bfb097004fb0970046
:10071000000140000000e0000f003d004f08de0037
:1007200000007100c0b79f009e00070001003d005f
:1007300012002000a100070001003d00120020006f
:10074000a6000700b1000700b60007000f00400038
:10075000c8ff0700220037004f08de0000067100c6
:10076000ccb79f008f00070001003d001200200061
:100770009200070001003d001200200097000700d2
:10078000a20007000fb297009fb297002fb3970007
:10079000bfb39700a90007000000520081805a00f3
:1007a00002015b0083815b0080b79f0091b79f00cf
:1007b000a2b79f00b3b79f000007eb009f000700a0
:1007c0000020e10001a8e10002b0e10003b8e1006f
:1007d000010031001e0020000e005600c0b79f002f
:1007e0004fb297000400e000070035001000200021
:1007f000010020006011b8000804700089847000b6
:100800000a0571008b8571008d06e900beff3a0074
:100810000400e00003003d00820007000f004000dc
:1008200094ff07004fa897000000e00004003a0082
:100830000fb497009fb497002fb59700bfb59700ee
:10084000940007004f0778004f06be004f05be001a
:100850004f04be004f01b10000000600881f780061
:1008600018002000881f780095ff07008f87e90097
:100870004f04780000000600801feb0090ff070087
:100880008f87e90000000600889fbe008a9fbe0097
:100890008c1f78006e00070007003d007300070002
:1008a000e00f5b00e08f5b0007003d0032000700b7
:1008b0000006eb00040037003400070002003d0092
:1008c0002a0007001c00200072000700e3ff070059
:1008d0000203be000002be000c00e0000100320076
:1008e000220007000400be000601be004f0678008b
:1008f0004f05be004f04be0000000600889fbe00ea
:100900008a9fbe008c1f78005100070005003d0043
:1009100056000700e00f5b00e08f5b0006003d0023
:10092000040037001900070003003d006000b80014
:100930006011b8001000070056000700ceff070046
:100940000203be000002be000c00e0000100320005
:10095000060007000400be000601be004f06780036
:100960004f05be004f04be00000006006000b80046
:100970006011b80000003700040250008582580062
:100980000603590087835900000006000006eb00ab
:10099000e00f5200e08f5a00e00f5b00e08f5b0039
:1009a000000006000180400090b79f000001eb00ae
:1009b0008fb097000100e000000006000200700008
:1009c00090b79f000180400080b79f000001eb00be
:1009d000ffa897000100e000000006000200700080
:1009e00080b79f00018040006faa9700cf20de00f3
:1009f00001007000f0af9f000402420025000700d4
:100a00004f18de000002720000000600e4af9f00f5
:100a10000804440089844c000a054d008b854d0074
:100a2000000006003fb29700cfb297005fb3970077
:100a3000efb3970000fe2f00000006003fb09700c4
:100a4000cfb097005fb19700efb1970000000600ac
:100a50000205be000004be00e00f5000e08f580009
:100a6000e00f5900e08f5900000006006000b80058
:100a70006011b80008045000898458000a05590024
:100a80008b8559001c002000e00f5200e08f5a00b7
:100a9000000006000800be000a01be0000000600bb
:100aa0002800fa00889fbe008a9fbe008c9fbe006f
:100ab00003866b00350207000028a30064003a009b
:100ac0000128a30067003a000008a30062003a0072
:100ad0000108a30065003a001e009000be089000c7
:100ae00081064000ed3fb100f4805700ee01900018
:100af000111ab8008e099000311bb8009e099000b1
:100b0000311cb800511db800f4855700460007009d
:100b1000fe0190003a0007008b85e8003e000700c8
:100b20008e09900040000700ee019000340007009d
:100b30008b85e800380007008e0990004000070010
:100b40009e0990001b18b800890440000a854800df
:100b5000fe019000340007008b85e8003800070094
:100b6000ee019000300007008e0990001b18b800bd
:100b7000890440000a8548000a98a30008003a004a
:100b80000402420085824a0006034b0087834b0023
:100b900008044c0089844c000a054d008d06e900cc
:100ba00084827200850273004c3add008502720077
:100bb0000100320015002000443ade001400b200ab
:100bc0004538de00cb45dd000b007000c540de007f
:100bd000cb4ddd008b8070004549de00cb55dd003c
:100be0000b017100c551de000d0378000002070003
:100bf00003f0a1000cf0a70003f0a000f7013700fc
:100c00001b18b8008502400006834800e0834b00b3
:100c100060044c00070037001b18b80006034000b2
:100c200087834800faff37001b18b800870340008d
:100c300008844800e0844c0060054d000000060078
:100c40001b18b8000804400089844800faff3700e8
:100c50000108a300de013a005800be005801be00a2
:100c6000e3ff37000008a300d9013a000904780027
:100c7000f9ff370081037800090207000001be0078
:100c80006000b8000478a30013003a006220e1007d
:100c900015003e000d0039008301d1000281d30010
:100ca0008180d3008301d1000281d3008180d300f1
:100cb0008301d1000281d3008180d3000538b000c8
:100cc000c42add00f300b2008381720007f0a700a0
:100cd00003f0a00000000600f3ff2700f2ff2f0042
:100ce0006110b900fbff370003ff2700f7ff370053
:100cf0008f1fd100ff0107008f87e9000000e0008f
:100d000000000600801feb00fa0107008f87e90052
:100d10000000e000000006001400fa00889fbe00fa
:100d20008a9fbe008c9fbe000005be000206be006a
:100d3000680047000c90be000a90be001602070033
:100d40006400e1001a00320016003e006100e1007c
:100d50001a0032006e049000fe0490000e0b90000a
:100d60009e0b90006011b8009e0590000b38b100fa
:100d7000d501200082817100610164008703d100e8
:100d80000683d3008984d3000884d3008502e90058
:100d9000f8ff3a00270207000df0a70001f0a000bd
:100da0008e013700f1ff2700f0ff2f008b01370085
:100db00001f8270000002000f7ff37006000b800ae
:100dc000f5ff370041020700050978000000060022
:100dd000809feb00c70107008f87e9000000e0005b
:100de000000006002800fa00889fbe008a9fbe000f
:100df0008c9fbe0003866b00640107006400e10065
:100e0000440032006408e1004a0032006100e10061
:100e1000460032006108e10049003200ec0647005c
:100e20006000b8003d02be003d03be00f4865700de
:100e30006011b8003d04be003d05be007d032000ea
:100e40000b0037000000a0008d06e90013003200ff
:100e50000402420085824a0006034b0087834b0050
:100e60000000400081804800020149008381490060
:100e70000802520089825a000a035b008b835b00e0
:100e8000f0ff3b000802420089824a000a034b003f
:100e90008b834b008d06e900edff3a0084827200df
:100ea00086827200f707b20087827200010032006a
:100eb000150020001e0490003e0b90000603540015
:100ec000e63fb0000368a300070032000000a7005f
:100ed0000500a0008301d1000281d3008180d300ee
:100ee0000080d3000603e8008301d1000281d30013
:100ef0008180d3000080d3000002eb000482d20086
:100f00003b01070003f0a1000cf0a70003f0a000d4
:100f100032013700640247006408e1002c0132000e
:100f20003400be003401be00f6ff37006108e10066
:100f3000270132006011b8006000b800f1ff3700ef
:100f400003ff270002002000fbff37001400fa0017
:100f5000889fbe008a9fbe008c9fbe000004be001a
:100f60000205be00680047000a90be000890be005f
:100f7000890107000070a7000bf0a1000bf8a30087
:100f800016003a009e0290003043200080825200fa
:100f9000b0fe2f000028e1000d003c00b0fc2f0047
:100fa0000028e1000d0034001e0990008e0890001a
:100fb0007e0090000501b0000201d1008180d300c5
:100fc0000080d3008502e800fbff3a0003013700f0
:100fd0000100280000002000000137006000b80078
:100fe000fe0037004f89de0082017800b000370034
:100ff0002800fa00889fbe008a9fbe008c9fbe001a
:1010000007067800878669000c003b00030478001f
:101010008704780008f0a10009f0a100840f5000b7
:10102000858f5800860f5900890f5c00030033003c
:101030000cf0a20001003a000cf0a100d300070060
:101040006400e1005f003200780147006408e100bd
:10105000610032006c014700748557003200be0009
:101060001201be003a04be001a05be001e03900025
:10107000be0a90008503530006003d000004fd00f9
:101080008104fd000205fd008305fd008703ea00e1
:10109000050378000df8a30004003200600414007a
:1010a000e0841c0060051d00e0851d006022b80082
:1010b0007d0320000d38e1008006eb000b003900b5
:1010c0004433dd00f300b2008301730039003700c0
:1010d000848272000d027800e10664008b85d100e5
:1010e0000a85d3008984d3000884d3008703e900ec
:1010f000f7ff3b0008004000898048000a014900d2
:101100008b81490004003b0060001000e080180063
:1011100060011900e08119000358a30009003200a2
:101120008d82720084827200610260008301d100ae
:101130000281d3008180d3000080d3000603e80041
:101140001b0037000348a30017003a000600e00028
:10115000170034000603e9000d00a300000048005a
:101160008180480002014900838149000348a300af
:101170000f003a000600e000090034000603e90011
:10118000000040008180480002014900838149003d
:1011900001003a000003eb000348a300f5ff320012
:1011a0006022b8000200370084827200618266000b
:1011b0008f00070003f0a1000cf0a70003f0a000cf
:1011c00086003700640147006408e10002003a002d
:1011d0000df8a3007e003a003200be001201be00ee
:1011e0007e00370007f0a20081ff37001400fa00ec
:1011f000889fbe008a9fbe008c9fbe000004be0078
:101200000205be00680047000a90be000890be00bc
:10121000e10007000070a7000bf0a1000bf8a3008d
:1012200020003a009e0990000e099000fe009000f8
:101230006e0090009e029000344320008482520091
:10124000660032000a003c00b4fc2f000428e100d4
:10125000140034008301d1000281d3008180d300c7
:101260000080d3008502e800faff3a005b003700f7
:10127000b40020000428e10007003c00000040000a
:101280008180480002014900838149008502e9000c
:10129000faff3a0051003700030028000200200046
:1012a000010037006011b8006000b8004b00370043
:1012b000889fbe00830478000300e0002c00350006
:1012c00003003c000082700004027100260032001e
:1012d00036432000c50020008383cf000a00390078
:1012e0000541b1008283cf00070039000541b100fc
:1012f0008183cf00040039000541b1008083cf0015
:10130000010039000541b10085c353006022b800d7
:10131000120032000a003b00848272006102600009
:101320008301d1000281d3008180d3000080d300eb
:101330000603e8008743e800f7ff3a00070037009c
:10134000000040008180480002014900838149007b
:101350000603e9008743e900f9ff3a00240007008b
:1013600009f0a70003f0a0004f04be000000060033
:1013700060001000e080180060011900e081190091
:10138000d3ff3b00033e2c00f7ff37006804470003
:101390000294be000094be00fc0447008694be0088
:1013a0008494be00090078007b00070008007800e4
:1013b0007900070099007800814f70000b003b0016
:1013c0000800be00ce0007004f00b1000300370048
:1013d000f3ff2700f2ff2f006110b9004f06be0097
:1013e0004f05be004f04be000080fa00000006005a
:1013f0001800200057002000080453000d003d0095
:101400000600200097fc2f000740e1001e0034007a
:1014100084827200610260008301d1000281d300e6
:101420008180d3000080d3000804e800f8ff3a0070
:101430004700200061046000050474000404640097
:101440000d00320061004000e0804800600149006a
:10145000e081490003b8a500070032000603e80058
:101460006538e10004003a008301d1000281d30015
:101470008180d3000080d300f87f20000830e10095
:1014800003003500080378006000b8006011b80060
:101490004433dd00f300b200830173000000060056
:1014a000c70ade00f107b200f50fb20008003200f3
:1014b000e1cf4200020032000170a00024000500cc
:1014c000810f70000100320004080500440005008f
:1014d000810f700002003a00140005008502e90047
:1014e0000000400081c04800fcff3b000170a000ec
:1014f00024000500889fbe008a9fbe008c9fbe000e
:101500000404be000605be00809fbe00829fbe0090
:1015100089000700040678000800be000a01be002a
:1015200085000700840678004f03be004f02be000e
:101530008d4f76007fb0970013003300f0ff2f002f
:101540008b8f6b0006003b000d0666000c00a700a9
:101550000a00370007f0a600100020000a0037003c
:10156000880f5200898f5a008a0f5b008b8f5b00b7
:10157000030039001000200001003e0000002000a0
:1015800007f0a7000000ea004f06be004f05be00ae
:101590004f04be0000000600800078005002be002c
:1015a0005003be004439de00f700b200f37f200094
:1015b00003016100090032000218e10016003a0040
:1015c000850172008301730083817300000820008d
:1015d00015003a004000200013003700850172001a
:1015e000830173008381730005003a0004a8be00e4
:1015f00006a8be00100020000b0037000201e90021
:101600000402420085824a0006034b0087834b0098
:101610000748a300f9ff32000740a00004a8be005d
:1016200006a8be00200020008000980092009800cc
:101630000000060081002000618055000b003d0085
:101640000b00200061fe2f000100e1001d003400ae
:1016500082817100610164008904d1000884d30093
:101660000000e800faff3a00710020006100640009
:1016700003007000020060000900320061044400b1
:10168000e0844c000988a500050032008b05e800c5
:101690006808e10002003a008904d1000884d30000
:1016a000f20f20000258e10005003d00c75ddd009b
:1016b000f907b20089807500080078000000060074
:1016c0000bf827008b007800000005000003be0027
:1016d00073ff07006220e100020032000600be0036
:1016e00005000500e507b100f107b20004f0230092
:1016f0008480700007f0a70001f0a000240005001e
:10170000e48240001078a300070032006402400029
:101710001178a3003400be001401be0004003200a2
:101720000330a700000006003500be001501be0012
:101730000330a0000000060005ff270005826100bd
:10174000070032000428e1000100320024000500f7
:101750000600070001003a004400050004080500e7
:1017600002000700f9ff3a00140005006f826100d3
:10177000810270008502710085027200000006007f
:1017800010417800b141510003003a000000e80028
:101790000204e000faff3a000300fb00000006002c
:1017a0000001780000c2b300010037000201e80028
:1017b0009240780080cf5000fcff3200e9cf50000b
:1017c000faff3200d0c2b30080cf500003003a00cd
:1017d0000201e80014c0b300050037000042eb002e
:1017e000b0c2b30080cf500001003a000201e8000f
:1017f0008000eb0005fd2f00040037006a08b900e7
:1018000000804100850040000201e8009201fb00d9
:1018100005804100e90f5000f8ff36000404e000a5
:10182000010032008100ea0001007800000006009b
:101830000c00fa00889fbe0000047800cfb097002b
:10184000f0ff2700d0bf9f008004eb0099bf9f00ee
:1018500088bf9f00a8bf9f00200c2000b0bf9f0042
:101860007881570070805700250007000fb8970057
:10187000094878000fb89700080450000800780065
:101880004f04be000080fa000000060080007800cf
:101890003004e000feff3a00010050000000e900c3
:1018a000000006000c00fa00889fbe0000047800cb
:1018b000cfb09700f0ff2700d0bf9f008004eb005f
:1018c00099bf9f0088bf9f00a8bf9f00200c2000e9
:1018d000b0bf9f00788157007080570066030700f3
:1018e0000fb89700094878000fb897000804500017
:1018f000080078004f04be000080fa0000000600d7
:10190000fe874700889fbe008a9fbe008c9fbe0056
:101910008e1f7800f0b79f000107780082bf9f00fc
:101920000000eb00a0b79f009f0237008006eb008d
:1019300050c2b30080cf5000090032000100fb000c
:10194000ffb097003a0b0700e10f4000960232000b
:10195000afb097008100e800a1b79f009202370066
:101960009e407800d0c2b30080cf50000c003200ff
:1019700007003c006d40500080cf50000a0032004c
:101980006b40400080cf50000e003a000800370046
:1019900000c3b30080cf50000a003a0006003700b1
:1019a0000d30a000050037000d00a0000300370037
:1019b0000d10a000010037000d20a0000e07e80068
:1019c000e7ff37000d18a300010032000d00a10051
:1019d0000d38a300010032000d20a1000100fb0022
:1019e00002fd2f0002004000e90f50000e003e00f3
:1019f0000002eb00c4b79f0082017800cfb29700cd
:101a00006a28b9001e01fb000001410003014100ea
:101a1000c2b79f005e00fb0003004000e90f5000ca
:101a20000b003e00f5ff37000006eb00ccb79f002f
:101a3000a0c2b30080cf500005003a000fb8970055
:101a4000c000780080bf9f00c1b79f000e07e8006c
:101a50000001eb00b2b79f00e0c2b3009e4f100040
:101a600018003a000de0a0008e00e800644050002d
:101a7000914f100002003200010778000c0037007f
:101a80000fba9700c402780084bf9f00b5b79f00cb
:101a90000e87e8000b0037003fb697006a60b90078
:101aa0000000410003004000b0b79f000e07e800af
:101ab0001e01fb0003fd2f0003004100e90f500051
:101ac000f5ff3600be407800e1d79f00c0c6b300e6
:101ad00080cf5000220032000f003c0069405000cf
:101ae00080cf50007700320004003c000104e00089
:101af000310232006b4050000f00370040c6b30087
:101b000080cf5000930032006540400080cf5000ed
:101b10008b003a008f00370030c7b30080cf5000f1
:101b20001a00320007003c006440500080cf500093
:101b3000110032000040e80080cf500080003a00e1
:101b40000f00370050c7b30080cf50008000320034
:101b50006340400080cf500079003a000900370010
:101b6000000028000d48a30001003a0000012000f9
:101b700080867600d3ff37000d60a0007500370027
:101b80000d50a0000d70a000720037008fb89700b4
:101b90004100780081bf9f00000478000000e00051
:101ba00001003a0028d524008004eb000100370032
:101bb0008104e80089007800088044001004e000f7
:101bc000fbff3a003fb197000200e0000300320043
:101bd000890f510001003100820478000002eb00ff
:101be000e4af9f00cfb29700898f52000200360009
:101bf00009805200e0af9f004368de00e10660000c
:101c00001b003a000d06780009003700ffb097006e
:101c100000022000860a0700e10f400003003200a6
:101c20002fb097000000e800a0b79f000c06e80066
:101c3000efa89700810f5600f4ff3a000081eb00f7
:101c4000e2af9f000a003700880078003100fb00f7
:101c500001047800ffb09700750a0700e10f40000b
:101c6000030032002fb297000402e800a4b79f00df
:101c70000900e90080047800e10f4000f2ff3a001b
:101c80000006eb000d00e0000a003a00c601370034
:101c9000ffb0970000022000650a0700e10f400036
:101ca00003003200afb297008502e800a5b79f009d
:101cb0000c06e8006fa89700800f5600f4ff3a006a
:101cc000b90137008fb897004100780081bf9f00ad
:101cd000cf80de0001017800820178000205be009d
:101ce0000004be000203be000002be004822de0067
:101cf000482edd0004027600e4d79f000d48a300c3
:101d00000a0032000404e00008003200e14f420003
:101d10000600320071fd2f00018047000448780062
:101d2000184098002900200002003700f0d79f00db
:101d30001900200072fd2f0002844700a1ff370028
:101d400064fd2f0004844700190020009dff370028
:101d50000d0cb3000d007800000cb20028003a0012
:101d60000d00e00005003d008fba97004505be005c
:101d70004504be0085bf9f00140037000d48a30036
:101d80000b0032000fbe97004c00be008cbf9f00be
:101d90004f89de00cf91de000002be000203780012
:101da000820378000605be000404be000700370069
:101db0008fb897004100780081bf9f000004780031
:101dc000cfc4de00090578008a057800e00f5400d2
:101dd000e08f5c00e00f5d00e08f5d001f003d00c4
:101de0003d00b3006000b8006011b8000804500066
:101df000898458000a0559008b855900170037005f
:101e00000d00e00005003d000fb997004205be003f
:101e10004204be0082bf9f00100037000d48a3009f
:101e2000070032000fba97004400be0084bf9f0035
:101e30006011b8000205be000004be0007003700b4
:101e40008fba97004500780085bf9f000004780096
:101e5000090020000a0020000b0020003fb6970078
:101e60000c00e00007003a00e00f5400e08f5c0037
:101e7000e00f5d00e08f5d0002003a0010002000de
:101e8000b0b79f008d007800010cb200e1b79f0051
:101e900000042000808f50003000320003003c001e
:101ea0000100e00008003200400037000008200078
:101eb0006fb19700800f510014003200000c200019
:101ec000800f510039003a0014c0b30025c124002e
:101ed0000b0037000400fb004300dd00050040005c
:101ee0005001be004000be000040e10001c8e1001a
:101ef00002d0e10003d8e1002b0039000442e800e1
:101f0000f44f5200f3ff3a00270037000001200091
:101f1000010020006011b80014c0b3000040e100cf
:101f200001c8e10002d0e10003d8e1001e00390041
:101f3000450020000000d0008180d2000281d20044
:101f40008381d2008502e900faff3a000442e800ea
:101f5000f04f5200f1ff3a001300370080002000dc
:101f6000010020006011b80014c0b3000040e1007f
:101f700001c8e10002d0e10003d8e1000a00390005
:101f80003c0020000000d0008180d2000281d200fd
:101f90008381d2000c06e900faff3a000442e8000f
:101fa000f54f5200f1ff3a00e4d79f00efd09700c1
:101fb0000100fb003fb19700820f500002003d007e
:101fc000e2d79f00040037003fb29700800f520015
:101fd00001003d00b0b79f00cfb297000500e000c0
:101fe0000400320063806600020032008502e900ce
:101ff000c5b79f000de8a3000b0032004fb6970055
:102000003fb09700800f560003003c008000eb00bb
:10201000c1b79f00040037004fb197003fb297004f
:1020200004015100c2b79f00efd297000500fb00ea
:102030000006eb00dcaf9f00cfb09700808f500010
:102040000200340000805000d0af9f000d28a30094
:1020500037003200e18066000d18a3000c0032004a
:10206000d00220000100e00001003a000080e900f9
:10207000ffb097006e090700e10f40000e0032002c
:102080002fb197000201e800a2b79f000a003700b5
:102090000100e00008003200ffb0970000022000bd
:1020a00063090700e10f4000030032002fb29700e0
:1020b0000402e800a4b79f00dfaa97000500e00033
:1020c0000f0032000006eb00ffb097000003200075
:1020d00057090700e10f4000030032002fb09700be
:1020e0000000e800a0b79f000c06e800dfa89700fa
:1020f000810f5600f4ff3a000001eb00d2af9f00c1
:102100003fb29700c320dd00a0c0240080804000c3
:1021100091b79f004220dd006400500080b79f000f
:102120006320b900f0af9f006306500084003700c1
:10213000dfaa97000500e000110032006880660009
:102140000f003a0000067800ffb097000002200060
:1021500037090700e10f4000030032002fb097005d
:102160000000e800a0b79f000c06e800dfa8970079
:10217000810f5600f4ff3a000001eb00d2af9f0040
:10218000e18066000d18a3000c003200d002200090
:102190000100e00001003a000080e900ffb0970074
:1021a00023090700e10f4000d5ff32002fb297004e
:1021b0000402e800a4b79f00d1ff37000100e0004f
:1021c000cfff3200ffb0970000022000180907007f
:1021d000e10f4000caff3200afb297008502e8006d
:1021e000a5b79f00c6ff370000042000efb097009e
:1021f000808f50003100320003003c000100e000fd
:10220000080032003e003700000820006fb1970040
:10221000800f510011003200000c2000800f51008f
:1022200037003a001fb097003002be002003be0006
:102230000800be000a01be0088f90700a4002000c3
:10224000050020006033b8008bf9070004c3b30019
:1022500004424000e4d79f002900370095d52400b0
:10226000d5b79f000d58a30002003a00a0d6240065
:10227000d0b79f0014002000050020006033b80094
:102280008fb097008100e900050033000402d00000
:102290008582d2000683d2008783d200f9ff3700ff
:1022a0000800be000a01be006cf907006f00600064
:1022b0005fb19700624078001000370014002000e2
:1022c000050020006033b8000c0078000000e90031
:1022d000050033000402d0008582d2000683d200bc
:1022e0008783d200f9ff37000800be000a01be0054
:1022f0005af90700674060000043b000e0d79f0034
:10230000efd097000100fb00ffb09700c80807005e
:10231000e10f4000030032002fb197000201e800f6
:10232000a2b79f001fb297006802520094b79f00a7
:102330008fb29700e482520085b79f006306560073
:10234000d0ff2f003fb197000090b9007faa9700ff
:102350000000420063005000800f5600a2ff3a00c8
:102360000d38a30010003200dfaa97000500e0003e
:102370000d0034000006eb00ffb0970000022000c3
:10238000ab080700e10f4000030032002fb09700b8
:102390000000e800a0b79f000c06e800dfa8970047
:1023a000810f5600f4ff3a00be407800e1d79f004d
:1023b0000104e0005dfd3a002fb097004f07780060
:1023c0004f06be004f05be004f04be00ef01b10036
:1023d00000000600889fbe008a9fbe0080407800f3
:1023e000d0c6b30080cf5000290036000185fb0025
:1023f00042062000110009000285d8000001780083
:10240000010478004311dd002bab24000b014100d7
:102410006022b8000600200007fe2300028890001a
:1024200092889000b2899000228990009cf9070060
:10243000a9002000809fbe00110009000984d80077
:10244000000478004f00be004344dd000b0444004c
:1024500048229000d822900068239000f823900032
:102460008ff90700801f7800010278001100090031
:102470000985d8000102fd004f0078004322dd00ed
:102480000b0242005403be004402be001f0037008e
:102490000180fb0029ab2400eacf50001400360075
:1024a000a2002000110009000280d800000178007d
:1024b000010478004311dd00090141006022b800e9
:1024c0000600200007fe230042209000d22090004a
:1024d000f22190006221900071f907004344dd0071
:1024e000090444003802be002803be00070037007c
:1024f0004300dd00090040006022b8000600200013
:1025000007fe23005001be004000be0064f9070032
:102510004f05be004f04be0000000600889fbe00ad
:102520008a1f7800804078000004e00021003d0010
:102530008040ea00d0c6b30080cf500009003400cc
:102540008104fb0042062000110009008204d8002b
:1025500000017800010078004311dd002aab24005f
:102560001f0037000100fb0023ab240039003700b7
:10257000a2002000110009000200d800000178002c
:10258000010078004311dd00030141004300dd003c
:10259000030040003002be002003be004220900035
:1025a000d2209000f2219000622190003cf90700b7
:1025b0002e003700d0c6b30080cf50002300340077
:1025c0008104fb0042062000110009008204d800ab
:1025d00000017800010078004311dd002ab62400d4
:1025e0000a014100a8002000110009000800d800dd
:1025f0004300dd000a00400040229000d0229000fd
:1026000060239000f0239000028890009288900050
:10261000b28990002289900021f90700801f78007c
:1026200001027800110009008804d8000102fd00b1
:102630004f0078000402fb004322dd000a02420042
:102640005403be004402be00d8ff37000100fb0067
:1026500023b62400eacf5000c5ff3c004300dd0054
:10266000030040005001be004000be004f0578004e
:102670004f04be0000000600ef04b000889fbe00bb
:102680008a9fbe008c9fbe008e1f78006022b8001b
:102690006033b800e4a79f00f5a79f0086af9f00b6
:1026a00097af9f00a0af9f00b1af9f00c2af9f0048
:1026b0008002eb00a5a79f00d00737008001eb0048
:1026c00050c2b30080cf5000090032000100fb006f
:1026d000afa89700d6070700e10f4000c7073200f8
:1026e0002fa397000603e800a6a79f00c3073700a3
:1026f000bfab970097407800b0c2b30080cf5000c6
:102700001900320007003c006b40500080cf5000a1
:10271000100032006340400080cf500021003a009a
:1027200016003700d0c2b30080cf50000400320042
:102730006340400080cf50001a003a001400370078
:102740000330a0003fac97000804e800b8af9f003a
:10275000e7ff37000300a000bfac97008904e80042
:10276000b9af9f00e2ff37000310a0003fad970014
:102770000a05e800baaf9f00ddff370003b0a000f4
:10278000bfad97008b05e800bbaf9f00d8ff3700b7
:102790000320a0003fa897000000e800b0af9f0012
:1027a000d3ff37000318a300010032000300a1008b
:1027b0000338a300010032000320a1000100fb0048
:1027c00002fd2f0002004000e90f500010003e0003
:1027d0008000eb00e1979f00020278006f91970064
:1027e0006a10b900bfaa97001501fb000001410063
:1027f00004014100e2979f005500fb00b5af9f0028
:1028000004004000e90f50000d003e00f3ff3700c8
:102810000003eb00e6979f00a0c2b30080cf5000fa
:1028200007003a00cfab970047047800c7af9f007e
:10283000e8979f00bfac97008904e800b9af9f00fc
:10284000e0c2b3003fad97009a4f100021003a005c
:10285000830678000de0a0008a00e8006440500084
:10286000914f100004003200b1af9f008005eb00d3
:10287000bba79f00100037004fa89700c00078004a
:10288000c0af9f00b1a79f003fa997000281e80059
:10289000b2af9f00130037003fa297006a20b90033
:1028a0000000410003004000b0a79f00bfaa9700ae
:1028b0008502e800b5af9f003fab97001601fb0013
:1028c00003fd2f0003004100e90f5000f2ff360026
:1028d00004003700830678000dc0a0008003eb00e1
:1028e000b7a79f003fac9700b8407800b8af9f00f3
:1028f000e1679f0070c6b30080cf50003c003200fb
:1029000017003c006440500080cf50008f00320020
:102910000e003c007c40500080cf5000330032005d
:1029200006003c000104e0003a07320000c0e90064
:1029300080cf5000aa003a002900370080c5b300bc
:1029400080cf5000a6003a002d00370050c6b300db
:1029500080cf5000230032001f003c00a70037004a
:1029600000c7b30080cf5000250032000a003c00b1
:102970006440500080cf500011003200634040009e
:1029800080cf50001c0032006640500080cf5000c5
:1029900093003a009900370050c7b30080cf500031
:1029a000950032006340400080cf50001500320097
:1029b0006540500080cf500089003a001300370076
:1029c000000028000d48a30001003a00000120008b
:1029d00080867600c3ff37000da0a0008700370077
:1029e0000d50a0000d80a000840037000d50a00005
:1029f0000d90a000810037000d60a0007f0037001f
:102a00000d50a0000d70a0007c003700cfac9700e7
:102a100049007800c9af9f00e0a79f000000e000d8
:102a200002003a00cbd72400eba79f000000eb0088
:102a3000f0a79f00020037008100e800f1a79f0087
:102a4000ffa097006fa19700028040001004e000f3
:102a5000f9ff3a00bfa197000300e0000400320034
:102a60007fa29700848f510001003100f3a79f00df
:102a70007fa097000005eb006f939700800f530035
:102a800001003600000553004368de00e1046000e9
:102a900019003a000904780009003700afa8970030
:102aa00000022000e2060700e10f400003003200b0
:102ab000afa397008703e800a7a79f000804e800da
:102ac0008a0f5400f5ff3a000085eb000a0037003a
:102ad000efa097003100fb00e1a79f00afa897008f
:102ae000d3060700e10f4000030032002fa4970037
:102af0000804e800a8a79f00ffa597000b00e900c5
:102b0000f0a79f00e10f4000f1ff3a000004eb0046
:102b10000900e0000a003a00b8063700afa89700a5
:102b200000022000c2060700e10f4000030032004f
:102b30002fa197000201e800a2a79f000804e80067
:102b40008a0f5400f5ff3a00ac063700cfa9970072
:102b500043007800c3af9f00cf80de000101780002
:102b6000820178000203be000002be00e0a79f00c1
:102b7000f1a79f0082af9f0093af9f004822de0025
:102b8000482cdd0004027400e4679f000d48a30098
:102b90000c0032000404e0000a003200e14f420061
:102ba0000800320079fa2f000980470004487800b5
:102bb0004fcd97001a4098002b002000fba79f00e4
:102bc00003003700f0679f0010002000f0a79f006f
:102bd00071fa2f0081804700e1a79f009dff370019
:102be00062fa2f000f014100e2a79f0013002000ae
:102bf000f3a79f0097ff37000d0cb3000070200073
:102c000000826600820432000dc8a3000200320078
:102c100064002000b4a79f000d48a3000900320003
:102c20004fa897004005be004004be00c0af9f0003
:102c3000e89f9f00f99f9f008aa79f009ba79f0086
:102c4000080037004fa997004200be00c2af9f00a6
:102c500008f80700e09f9f00f19f9f0082a79f0058
:102c600093a79f006022b8006033b8006f98970068
:102c7000ff9897000fa197009fa197001cf80700ed
:102c80000000e0000a003d006f9a9700ff9a97004d
:102c90000fa397009fa3970007f0a200e49f9f0057
:102ca000f59f9f0086a79f0097a79f003d00b30058
:102cb0000000eb00d0979f006022b8006033b8009e
:102cc0006f989700ff9897000fa197009fa197001a
:102cd0000cf807000000e000340032006f98970005
:102ce000ff9897000fa197009fa197000af807008f
:102cf000a5fa2f000581470032f807005f90970082
:102d00000000e9006300b900a200200011000900e2
:102d10000200d8008000fd00d1979f000100e00074
:102d200002003d000100e900d0979f005f949700ea
:102d30000840ea00f9fd07006f9a9700ff9a970094
:102d40000fa397009fa3970055f70700a09f9f0030
:102d5000b19f9f00c29f9f00d39f9f006022b80039
:102d60000600200007ff2300e1f707000000e00055
:102d700002003d000800e9000b0037006022b800a7
:102d800006002000470224002f989700bf98970064
:102d90004f999700df9997000df807000000e000b9
:102da000020035000800e800d0979f005f9397006d
:102db000d6a79f000600e00003003c0010c0b3004f
:102dc000e0679f0002003700afcb9700e7679f00e6
:102dd0000d0678000c10b20008003a000d98a30010
:102de000770232005fa49700e40f4400030035002f
:102df000bfa49700890f5400f20135003fa597004a
:102e00000a00e000040032000d98a3000200320026
:102e10000a05e900baa79f00bfa5970020c1b3002b
:102e2000f28f550001003e006fc09700e0679f00e1
:102e30006022b8006033b8006f989700ff98970041
:102e40000fa197009fa19700aef707000000e000d8
:102e50006d0032006f659700afc897000ac0500040
:102e6000aefd07000002be000203be006f9897008f
:102e7000ff9897000fa197009fa19700d9f707002f
:102e8000e09f9f00f19f9f0082a79f0093a79f0054
:102e90002ef807000004be0052f80700e00f5400af
:102ea000e08f5c0004003d006022b80006002000b6
:102eb000071f24004ef807000002be000203be00f8
:102ec0006f989700ff9897000fa197009fa1970018
:102ed000c4f807006022b8000600200007fe2300a7
:102ee000bbf707000000e0000c0035006022b800ce
:102ef0000600200007fe23006f989700ff989700b8
:102f00000fa197009fa1970039f80700e09f9f004d
:102f1000f19f9f0082a79f0093a79f006f98970043
:102f2000ff9897000fa197009fa1970007f807004f
:102f30000002be006033b8000a00fb004304dd005d
:102f400029cb240009004400d000900060019000cb
:102f5000f0019000400090000020e10001a8e10095
:102f600002b0e10003b8e1001000390004002000c5
:102f700005002a009699290097fb23006f98970077
:102f8000ff9897000fa197009fa19700c4f6070034
:102f9000e09f9f00f19f9f0082a79f0093a79f0043
:102fa0005fa197000200e800160037000900440006
:102fb0005001be004000be000020e10001a8e10079
:102fc00002b0e10003b8e1000f0031006022b80058
:102fd00006002000470224006f989700ff98970092
:102fe0000fa197009fa19700adf60700e09f9f00fb
:102ff000f19f9f0082a79f0093a79f00dfa19700ea
:103000000300e900d0979f004968de00610060007e
:1030100080cf9f000004e0004000320000802000cc
:10302000008666003d003a00bfa29700f48f520070
:103030000200340046012000b6a79f006f98970059
:10304000ff9897000fa197009fa19700bff7070077
:103050000004be000c0578008c0578000b003700da
:10306000bfa397008703e900b7a79f00a400200033
:10307000050020006033b8000800be000a01be0051
:10308000f6f507000205be000004be00e00f540084
:10309000e08f5c00e00f5d00e08f5d000b00320010
:1030a000a4002000050020006033b8000800be0026
:1030b0000a01be00f0f50700e00f5000e08f580055
:1030c000e00f5900e08f5900e5ff3200ef609700f4
:1030d0000100fb003fa49700800f54000f003d004b
:1030e00008c050000dfd07000002be000203be0034
:1030f0006f989700ff9897000fa197009fa19700e6
:1031000038f70700e09f9f00f19f9f0082a79f0074
:1031100093a79f00efc49700e9679f006f95970002
:10312000bfa597000b005500650650000b00e0009e
:1031300002003a000db8a3000100320066065000fc
:1031400063806600010032000c06e9000d28a30030
:1031500026003200e18066000d18a3000c0032004a
:10316000d00220000100e00001003a000080e900e8
:10317000afa897002e050700e10f400018003200ad
:103180002fa097000000e800a0a79f0014003700c0
:103190000100e00012003200afa8970000022000fa
:1031a00023050700e10f40000d003200afa097009b
:1031b0008100e800a1a79f0009003700afa8970091
:1031c000000320001a050700e10f40000300320051
:1031d0002fa197000201e800a2a79f000c06e900ba
:1031e0000c00e000f5ff3c002e0037000d38a30076
:1031f0000a0032000b003700afa897000002200041
:103200000b050700e10f400003003200afa197005b
:103210008301e800a3a79f000c06e9000c00e00072
:10322000f5ff3c00e18066000d18a300130032009a
:10323000d00220000100e00001003a000080e90017
:10324000afa89700fa040700e10f40001500320014
:103250002fa297000402e800a4a79f0011003700e6
:10326000e8a79f00f9a79f008aaf9f009baf9f0030
:103270008042eb00e5679f00800037000100e0001e
:1032800008003200afa8970000022000e804070001
:10329000e10f4000030032002fa397000603e8006f
:1032a000a6a79f006f989700ff9897000fa197001f
:1032b0009fa1970025f707000004be006055b800e5
:1032c000ef6397000700fb004300dd002ecb2400d6
:1032d0000e0040003002be002003be000800be0009
:1032e0000a01be005df507000003b000afa897001b
:1032f000cf040700e10f4000030032002fa0970029
:103300000000e800a0a79f00ef6097000100fb000d
:103310004300dd000e0040003002be002003be006e
:103320000800be000a01be0053f507000205be00fa
:103330000004be00e0a79f00f1a79f0082af9f009e
:1033400093af9f00bfa297000500e00002003a0083
:103350000db8a30049003200afa89700e00220009a
:10336000b3040700e10f4000030032002fa39700d1
:103370000603e800a6a79f00ef6397000700fb0085
:10338000bfa0970000805000809f9f00240037005e
:103390000fc997000204e00005003200e00f54005e
:1033a000e08f5c00e00f5d00e08f5d00acff32005d
:1033b0000000fb004300dd002ecb24000e00400087
:1033c0003002be002003be000800be000a01be009d
:1033d00022f507000003b000afa89700940407008f
:1033e000e10f400003003200afa197008301e80025
:1033f000a3a79f006f6297000400fb004300dd005d
:103400000e0040003002be002003be000800be00d7
:103410000a01be0018f507000205be000004be0048
:10342000ef6297000540e900e0679f00e14f400030
:10343000d7ff3a00e8a79f00f9a79f008aaf9f0037
:103440009baf9f000004eb0009003700afa8970076
:103450000003200076040700e10f40000300320063
:103460002fa397000603e800a6a79f000804e80022
:103470008f9b9700870f5400f4ff3a000d58a3006c
:1034800009003200afa8970050042000680407002c
:10349000e10f40000c0032002fa497000804e80060
:1034a000a8a79f0008003700afa89700500620008b
:1034b0005f040700e10f400003003200afa4970053
:1034c0008904e800a9a79f005f9097000000e00032
:1034d0000b003d000000ea00d0979f00afa89700c6
:1034e000d002200052040700e10f40000c0032001f
:1034f0002fa597000a05e800aaa79f00080037003b
:10350000afa89700b002200049040700e10f400077
:1035100003003200afa597008b05e800aba79f0022
:103520005f909700a8002000110009000800d80053
:103530000003b000afa897003d040700e10f400072
:10354000030032002fa097000000e800a0a79f0012
:10355000df909700110009008800d8008000fd006e
:103560000003b000afa8970031040700e10f40004e
:1035700003003200afa097008100e800a1a79f00e0
:103580000d38a3001d0432000c00e0001b043400c1
:103590000004eb00afa897000002200024040700fd
:1035a000e10f4000030032002fa197000201e80064
:1035b000a2a79f000804e8008c0f54000f043200fb
:1035c000f4ff3700dfa197000300e00004003d0096
:1035d0003fa29700030052000000e900b0a79f003f
:1035e0006f989700ff9897000fa197009fa19700f1
:1035f000fef607000205be000004be000c42780083
:1036000025cb24000b0037000400fb004300dd0045
:10361000050040005001be004000be000040e10037
:1036200001c8e10002d0e10003d8e1000300390045
:103630000442e800f44f5200f3ff3a00e4679f00b1
:103640000400fb00bfa2970000875200f80f57004c
:103650000d003c000e4078005efb07000002be003b
:103660000203be006f989700ff9897000fa1970084
:103670009fa197005ef60700e09f9f00f19f9f00cb
:1036800082a79f0093a79f000e407800a3fb07002e
:10369000d0af9f00e1af9f00f2af9f0083b79f00c4
:1036a000e00f5400e08f5c00e00f5d00e08f5d00f4
:1036b000040035000800be000a01be00fcf6070049
:1036c0001300370010002000010020006011b80036
:1036d00008006000898060000a0161008b81610040
:1036e0008b03d1000a83d3008982d3000882d300e0
:1036f00000007200818072000201730083817300f8
:10370000ebf607000002be000203be0038f6070019
:103710000002be000203be006f989700ff9897005a
:103720000fa197009fa19700aef607000002be0010
:103730000203be005fa89700efa897007fa997003b
:103740008fb19700d6f40700a8f607000205be0067
:103750000004be000006eb0008003700a4002000b3
:10376000050020006033b8000800be000a01be005a
:103770003af407000205be000004be000c03570027
:10378000b6a79f008e0f56001d0032000c06e80001
:10379000a4002000050020006033b8000800be002f
:1037a0000a01be0034f40700e00f5000e08f58001b
:1037b000e00f5900e08f5900e8ff32001000370099
:1037c000bfa39700f88f53000d003c00074078001e
:1037d00000fb07000002be000203be006f989700c6
:1037e000ff9897000fa197009fa1970000f6070090
:1037f000e09f9f00f19f9f0082a79f0093a79f00db
:103800005fa49700e90f540015003c006022b80047
:103810006033b8006f989700ff9897000fa197004a
:103820009fa1970037f507000000e0003600320046
:103830006f989700ff9897000fa197009fa197009e
:103840006af60700e00f5000e08f5800e00f5900c3
:10385000e08f59002c003a00e10f54002a00340098
:103860000400200005002e00b6e02200170124000d
:103870002f989700bf9897004f999700df9997006e
:103880001bf507000000e00003003d00dfa49700e7
:1038900073805400020037005fa597007200550046
:1038a000d0979f002f6897001cfb0700a09f9f00e8
:1038b000b19f9f00c29f9f00d39f9f000002be0048
:1038c0000203be006f989700ff9897000fa1970022
:1038d0009fa1970043f5070044f60700e0a79f006b
:1038e000f1a79f0082af9f0093af9f006000b800d8
:1038f0006011b800d0b79f00e1b79f00f2b79f00fa
:1039000083bf9f00340037006f989700ff9897009f
:103910000fa197009fa1970034f60700e0a79f0032
:10392000f1a79f0082af9f0093af9f00e00f500070
:10393000e08f5800e00f5900e08f59000200350079
:103940005bf6070017003700100020000100200080
:103950006011b8006fa29700ffa297000fab97000d
:103960009fab970004006000858060000601610045
:10397000878161008703d1000683d3008582d3004d
:103980000482d30000007200818072000201730083
:103990008381730046f607000002be000203be00ea
:1039a00093f507000002be000203be006f98970067
:1039b000ff9897000fa197009fa1970009f60700b5
:1039c000d0b79f00e1b79f00f2b79f0083bf9f0071
:1039d0000000eb00d0979f0014c0b30025cb24005b
:1039e0000f0037000400fb004300dd00050340002a
:1039f0003600be002601be006fa49700ffa497000a
:103a00000fad97009fad97000040e10001c8e100b5
:103a100002d0e10003d8e100030039000442e800cd
:103a2000f44f5200efff3a00e4679f000400fb00f0
:103a3000bfa4970000804400df9097000100400081
:103a40006f959700000655004b68de00610060002e
:103a5000004778000004e00002003a000900e0009e
:103a6000010032000c06e9006380660001003200ac
:103a70000c06e9000d28a30026003200e180660054
:103a80000d18a3000c003200d00220000100e0005d
:103a900001003a000080e900afa89700e4020700a7
:103aa000e10f400018003200afa597008b05e80039
:103ab000aba79f00140037000100e00012003200a5
:103ac000afa8970000022000d9020700e10f4000d4
:103ad0000d0032002fa097000000e800a0a79f0073
:103ae00009003700afa8970000032000d0020700ac
:103af000e10f400003003200afa097008100e80012
:103b0000a1a79f000c06e9000c00e000f5ff3c00b7
:103b10003f0037000d38a3000a0032000b003700c9
:103b2000afa8970000022000c1020700e10f40008b
:103b3000030032002fa197000201e800a2a79f0016
:103b40000c06e9000c00e000f5ff3c00e180660097
:103b50000d18a3000c003200d00220000100e0008c
:103b600001003a000080e900afa89700b00207000a
:103b7000e10f400026003200afa197008301e8006a
:103b8000a3a79f00220037000100e00020003200c0
:103b9000afa8970000022000a5020700e10f400037
:103ba0001b0032002fa297000402e800a4a79f0088
:103bb000170037000000fb004300dd0021cb24008c
:103bc000010040003002be002003be006fa097003d
:103bd000ffa097000fa997009fa997001ff3070068
:103be000a4002000050020006033b80022f3070085
:103bf0000003b000afa897008d020700e10f40005e
:103c000003003200afa297008502e800a5a79f003d
:103c10006f6397000640e900e0679f00e14f4000b6
:103c2000e4ff3a000b003700afa897000003200024
:103c30007f020700e10f400003003200afa39700ae
:103c40008703e800a7a79f005f9097000000e900a6
:103c5000d0979f005f9097000000e000f2ff3c00cb
:103c60003fa49700f20f54000300340020c1b300ba
:103c7000e0679f0002003700efc49700e9679f00ec
:103c8000ef6097000100fb003fa597000000550082
:103c9000f0979f000104e00002003a000e04e000eb
:103ca00008003200afa89700e00220006002070081
:103cb000e10f400003003200afa597008b05e8003c
:103cc000aba79f006f60970014fa07000002be00c8
:103cd0000203be005fb09700efb097007fb197007e
:103ce0008fb997006ef3070040f507001e003700fc
:103cf0000000fb004300dd002ecb24000e0040003e
:103d00003002be002003be000800be000a01be0053
:103d1000d2f20700a4002000050020006033b800a4
:103d2000d5f207000003b000afa8970040020700db
:103d3000e10f4000030032002fa097000000e800d0
:103d4000a0a79f00ef6097000100fb004300dd008b
:103d50000e0040003002be002003be000800be007e
:103d60000a01be00c4f207000205be000004be0046
:103d70006f6197000240e900e0679f00e14f40005b
:103d8000dbff3a00e8a79f00f9a79f008aaf9f00da
:103d90009baf9f000004eb0009003700afa897001d
:103da0000003200022020700e10f40000300320060
:103db000afa197008301e800a3a79f000804e800d3
:103dc0007f929700840f5400f4ff3a000d38a3004f
:103dd0000a0232000c00e000080234000004eb008c
:103de000afa897000002200011020700e10f400079
:103df00003003200afa297008502e800a5a79f004c
:103e00000804e8008c0f5400fc013200f4ff370076
:103e10000d007800000cb20032003a000d00e00006
:103e200009003d004fa897004005be004004be00b9
:103e3000c0af9f00e8a79f00f9a79f008aaf9f002f
:103e40009baf9f00160037000d48a3000900320009
:103e50004fa997004200be00c2af9f004f89de000d
:103e6000cf91de000002be000203780082037800da
:103e700007003700cfa9970043007800c3af9f0029
:103e800000027800cfa2de000503780086037800e8
:103e9000e4a79f00f5a79f0086af9f0097af9f0004
:103ea0006fa49700ffa497000fad97009fad9700f8
:103eb000e00f5400e08f5c00e00f5d00e08f5d00dc
:103ec00026003d003d00b3006000b8006011b8005e
:103ed00008045000898458000a0559008b85590050
:103ee0001a0037000d00e00005003d004faa9700c2
:103ef0004401be004400be00c4af9f00070037006d
:103f00000d48a3000a003200cfaa97004500be006a
:103f1000c5af9f000401780084017800e0a79f00ee
:103f2000f1a79f0082af9f0093af9f000b00370067
:103f30004fab970046007800c6af9f0000047800a2
:103f4000090020000a0020000b002000e8a79f00c5
:103f5000f9a79f008aaf9f009baf9f00bfa4970067
:103f60000900e0000b003a006fa09700ffa0970047
:103f70000fa997009fa99700e00f5000e08f58000d
:103f8000e00f5900e08f590002003a0011002000b4
:103f9000b1a79f000d0678000c0cb20000042000b1
:103fa000800f56003700320003003c000c00e00098
:103fb000070032004b00370000082000800f560039
:103fc00018003200000c2000800f560045003a0017
:103fd00014c0b30025cb24000f0037000400fb0001
:103fe0004300dd00050040005001be004000be005f
:103ff0006fa49700ffa497000fad97009fad9700a7
:104000000040e10001c8e10002d0e10003d8e10076
:10401000330039000442e800f44f5200efff3a0049
:104020002f00370000012000010020006011b800bf
:1040300014c0b3006fa49700ffa497000fad9700c2
:104040009fad97000040e10001c8e10002d0e1000f
:1040500003d8e10022003900490020000000d00010
:104060008180d2000281d2008381d2008904e900dc
:10407000faff3a000442e800f04f5200edff3a0028
:104080001700370080002000010020006011b800f8
:1040900014c0b3006fa49700ffa497000fad970062
:1040a0009fad97000040e10001c8e10002d0e100af
:1040b00003d8e1000a003900390020000000d000d8
:1040c0008180d2000281d2008381d2008904e9007c
:1040d000faff3a000442e800f54f5200edff3a00c3
:1040e000e4679f006f6597000a00fb00bfa597007b
:1040f0008b0f500002003d00eb679f00040037006b
:10410000bfa09700808f500001003d00b0a79f0026
:104110006f9197000200e0000400320063806600a7
:10412000020032000201e900e2979f000de8a300bf
:104130000b003200ef9197003fa29700848f51004f
:1041400003003c008002eb00e5979f00040037006d
:104150006f939700bfa3970007035300e6979f0054
:10416000408c20000080660001842000810f5000f8
:1041700006003a006f9497000800e000110032003a
:104180000804e900e8979f000e003700008c20002b
:104190000080660001882000810f500009003a006d
:1041a000ef949700e28f540003003c000005eb0001
:1041b000ea979f0003003700ef9597008b85e90091
:1041c000eb979f00ef6097000100fb000007eb00fa
:1041d0006f919700800f51000100340000075100db
:1041e0000d28a3004b003200e18066000d18a300eb
:1041f0000c003200d00220000100e00001003a0073
:104200000080e900afa8970009010700e10f400016
:1042100027003200afa197008301e800a3a79f0009
:10422000230037000100e00009003200afa897002a
:1042300000022000fe000700e10f40001c003200d9
:104240002fa297000402e800a4a79f0018003700df
:10425000008c20000080660001882000810f500043
:1042600013003a00afa8970000032000f0000700f9
:10427000e10f400003003200afa297008502e80082
:10428000a5a79f00800520000d58a30001003a005b
:1042900080072000afa89700e5000700e10f40006d
:1042a000030032002fa397000603e800a6a79f0093
:1042b0000e00e0000d0032000004eb00afa89700f4
:1042c00000032000da000700e10f40000300320085
:1042d000afa397008703e800a7a79f000804e800a2
:1042e0008e0f5400f5ff3a000007eb003fa4970043
:1042f000c340dd00a0ca2400808540004240dd00ac
:10430000640550006340b900909f9f006304500013
:10431000a20037000e00e0000f0032006880660047
:104320000d003a0000047800afa8970000022000ba
:10433000bf000700e10f400003003200afa4970068
:104340008904e800a9a79f000804e8008e0f540024
:10435000f5ff3a000007eb00e18066000d18a300ae
:104360000c003200d00220000100e00001003a0001
:104370000080e900afa89700ad000700e10f400002
:104380000e0032002fa597000a05e800aaa79f009b
:104390000a0037000100e00008003200afa89700d3
:1043a00000022000a2000700e10f400003003200dd
:1043b000afa597008b05e800aba79f00008c2000fd
:1043c0008080660000842000808f500009003a0041
:1043d000afa897000003200095000700e10f400000
:1043e000c2ff32002fa097000000e800a0a79f00a6
:1043f000beff370000882000808f5000bbff3a00ce
:10440000afa897000003200089000700e10f4000db
:1044100003003200afa097008100e800a1a79f0031
:10442000800520000d58a30001003a0080072000fd
:10443000afa897007e000700e10f4000abff3200fd
:104440002fa197000201e800a2a79f00a7ff370055
:1044500000042000800f56003100320003003c00b1
:104460000c00e00007003200400037000008200088
:10447000800f560012003200000c2000800f560002
:104480003a003a003b02be002b03be006fa097002b
:10449000ffa097000fa997009fa99700eff00700d2
:1044a000a4002000050020006033b800f2f00700ef
:1044b00004c3b30004424000e4679f002b003700b0
:1044c00039d824000d58a30001003a0049d924002e
:1044d00014002000050020006033b8000a007800b6
:1044e0000000e900050033000402d0008582d200fc
:1044f0000683d2008783d200f9ff37006fa09700b0
:10450000ffa097000fa997009fa99700d3f007007d
:104510006f006000e9447800e9679f0013003700ee
:1045200014002000050020006033b80088007800e7
:104530008100e900050033000402d0008582d2002a
:104540000683d2008783d200f9ff37006fa097005f
:10455000ffa097000fa997009fa99700bff0070041
:10456000674060000043b000e0679f006f61970004
:104570000200fb00afa897002d000700e10f4000ec
:1045800003003200afa197008301e800a3a79f00ba
:10459000e88555006405550063045400d0ff2f00e2
:1045a0003fa2970000a0b9009f9a970000804200a8
:1045b00063005000800f5400a5ff3a000d38a3009f
:1045c0000e0032000e00e0000c0034000004eb008e
:1045d000afa897000002200015000700e10f40007f
:1045e000030032002fa397000603e800a6a79f0050
:1045f0000804e8008e0f5400f5ff3a00bfab9700a7
:10460000b7407800b7af9f00e1679f000104e0006a
:104610002af83a002fa097004f0778004f06be00f7
:104620004f05be004f04be00ef04b10000000600bd
:10463000889fbe000001780001047800b10090005e
:104640000118a3003d0032000198a30003003a00c6
:10465000180090000000e00038003a000190a0002f
:104660003104980082047800f90fb200180090001d
:104670000000e00002003a0028009000000c7800e2
:10468000ea8f540006003a00380090000078a3003a
:1046900003003a0088007800d0002000e4ff070003
:1046a0009800900058009000808f50000b0032005e
:1046b0000100e800100498001800780009587800fc
:1046c000000c780011c0b30000dd24000148780020
:1046d000ea8f540006003200190037008800780085
:1046e00009407800190007008004780014003700a2
:1046f000380090000088a3001100320018019000db
:10470000a800900048009000a3ef070098009000d8
:10471000810f500004003200380090000003b30005
:10472000300498008084eb000000eb001004980037
:1047300028009000000c7800010037008084eb0016
:10474000090078004f04be00000006000200fa00d5
:10475000889fbe00a0ff9f0001047800b100900078
:10476000810478000904b200020032000000fb005e
:10477000360037000118a30005003a000103b3001a
:1047800031049800190498000080eb002f003700d6
:10479000580090000000e00006003a004800900039
:1047a00012002000e68057007bef070019049800f4
:1047b00024003700280090000000e00008003a00c4
:1047c000c0dc240020049800000c780020002000a9
:1047d00050049800100498000130a00031049800a3
:1047e00018019000a8009000480090006aef0700b0
:1047f00028009000000c78000080eb001004980066
:1048000018007800aff8970001587800000c780085
:104810002ff89700ea4f50000a003a003800900045
:104820000088a3000700320018019000a800900043
:104830004800900058ef070019049800a800900065
:10484000010c7800aff897000100fb004f04be0098
:084850000080fa0000000600e0
:020000040000fa
:020000040002f8
:10600000a30280000001780020042400003b8800e7
:10601000a2028800010078000108bb000700fc0014
:1060200050052000303b8800a10a2000313b880049
:1060300061e7a800000000000000000061e7af0079
:10604000feff3700a3028800000006005400f8009d
:10605000a002880010002400003b880001007800a6
:1060600082007800f2032000b1017800310278004c
:106070000308bb000498bb000201e900faff3a00e4
:10608000b1017800310278000308bb000488bb002e
:106090000700fc0050052000303b8800a10a2000ca
:1060a000313b880061e7a80000000000000000000c
:1060b00061e7af00feff37005400f9000000060062
:1060c0005400f800a00288000100780082007800e7
:1060d000020420009018ba00b098ba000201e9004a
:1060e000fcff3a005400f9000000060080407800f0
:1060f00033c2bf000018a300fdff3a000180fb007f
:10610000a011880000000600889fbe008a9fbe0084
:1061100080057800010578000100e00010003400df
:106120004208dd00640450008004eb0008d8de0063
:106130006f006000e90f500003003c000043b00016
:10614000eaff0700020037007045b000e7ff0700d4
:106150008904e800640454008a8f5400f3ff3a0075
:106160004f05be004f04be00000006000200e00024
:10617000050034008001eb00315878008301e8000d
:10618000830f5100fcff3a0000000600881f7800d2
:1061900000047800104078000004e00004003200a1
:1061a000d2ff0700584078000004e000fcff3a00ee
:1061b0004f047800000006008000780000032000f3
:1061c000200888000021ef006e0040000088b90020
:1061d000100888008460a90005e1a80084c0bf0001
:1061e0000038a300fdff320005e1a9000000060011
:1061f000800178000041eb0002007800e0e2b70087
:106200000000000060178000c10f20000100600046
:106210000000a0006017880002007800e4e2b700e8
:10622000dcc2a90000000000dcc2a80060178000ea
:10623000010060000010a00060178800a0c1b3003a
:10624000e4e2b700dcc2a90000000000dcc2a80044
:1062500060178000010060003000b3006017880004
:10626000a0c0b300e28f51000100320030c0b30083
:10627000e4e2b700dcc2a90000000000dcc2a80014
:10628000e4e2b700dcc2a90000000000dcc2a80004
:1062900000002600e040880000002400c040880084
:1062a00000002700f040880000002500d040880052
:1062b000e18f510004003a00f0ff2100a040880067
:1062c0008040880007003700e28f510005003a0047
:1062d000f0ff2000a040880080408800b040880087
:1062e00090408800e0e2ef0000000000000006009f
:1062f000889fbe008a1f780080c4eb0009007800e8
:10630000e0e2b70000000000dc82a900ec02a90076
:10631000ec22a900dca2a800dcc2a800100020002a
:10632000a5ff0700dc82a80090012000a2ff070063
:106330000045eb000a007800e0e2b7000000000032
:10634000c80f20000004fd00ec22b6000004fd0090
:1063500000c8b300e4e2b700dcc2a90000000000fe
:10636000dcc2a800a000200093ff07000004fd008d
:10637000ec22b6000004fd0030c0b300e4e2b70038
:10638000dcc2a90000000000dcc2a8006017800089
:10639000080060000000a000601788000a00780074
:1063a000e4e2b700dcc2a90000000000dcc2a800e3
:1063b00060178000080060000010a00060178800cf
:1063c00011c0b30001007800e4e2b700dcc2a9000c
:1063d00000000000dcc2a800601780000800600018
:1063e0003000b3006017880052c5b3000200780087
:1063f000e4e2b700dcc2a90000000000dcc2a80093
:10640000a0cab300e4e2b700dcc2a90000000000ab
:10641000dcc2a80060178000080060000010a00027
:106420006017880001007800e4e2b700dcc2a90030
:1064300000000000dcc2a8006017800008006000b7
:106440003000b3006017880009007800e0e2b70070
:1064500000000000dca2a900000000000000000015
:10646000e2c2bf00dca2a800824f5000030032004d
:106470000a0078003bebb7000200370010c0b30001
:106480003bebb7004f0578004f04be00000006004c
:10649000889fbe003b4be200b500320020c0b30035
:1064a00098eab7008042eb0005007800e0e2b70010
:1064b0000000000060178000c10f20000100600094
:1064c0000000a0006017880005007800e4e2b70033
:1064d000dcc2a90000000000dcc2a8006017800038
:1064e000010060000010a0006017880010c0b30019
:1064f000e4e2b700dcc2a90000000000dcc2a80092
:1065000060178000010060003000b3006017880051
:10651000e0cbbf00e4e2b700dcc2a900000000004d
:10652000dcc2a800e2cbbf00e4e2b700dcc2a900f5
:1065300000000000dcc2a800e4cbbf00e4e2b7002a
:10654000dcc2a90000000000dcc2a800e6cbbf004e
:10655000e4e2b700dcc2a90000000000dcc2a80031
:10656000c05e800036ebb700d25e80000001fd0007
:1065700035ebb7000001fd00e35e80008001fd0007
:1065800034ebb7008001fd00f45e80000002fd00e6
:1065900033ebb7000002fd00865e80000003fd00c3
:1065a0003aebb7000003fd00975e80008003fd001a
:1065b00039ebb7008003fd00a85e80000004fd00f9
:1065c00038ebb7000004fd00b95e80008004fd00d8
:1065d00037ebb7008004fd00e4e2b700dcc2a9009d
:1065e00000000000dcc2a80002007800e4e2b7006e
:1065f000dcc2a90000000000dcc2a8000300780093
:10660000e4e2b700dcc2a90000000000dcc2a80080
:1066100004007800e4e2b700dcc2a900000000003a
:10662000dcc2a8002dcbbf00e4e2b700dcc2a900a9
:1066300000000000dcc2a8002ecbbf00e4e2b700df
:10664000dcc2a90000000000dcc2a8002fcbbf0004
:10665000e4e2b700dcc2a90000000000dcc2a80030
:1066600030cbbf00e4e2b700dcc2a90000000000ac
:10667000dcc2a80031cbbf00e4e2b700dcc2a90055
:1066800000000000dcc2a80032cbbf00e4e2b7008b
:10669000dcc2a90000000000dcc2a80006007800ef
:1066a000e4e2b700dcc2a90000000000dcc2a800e0
:1066b00007007800e4e2b700dcc2a9000000000097
:1066c000dcc2a80008007800e4e2b700dcc2a90040
:1066d00000000000dcc2a80009007800e4e2b70076
:1066e000dcc2a90000000000dcc2a8006017800026
:1066f000010060000010a0006017880060c1b300b6
:10670000e4e2b700dcc2a90000000000dcc2a8007f
:1067100060178000010060003000b300601788003f
:1067200005007800e4e2b700dcc2a9000000000028
:10673000dcc2a80060178000010060000010a0000b
:1067400060178800a0c1b300e4e2b700dcc2a90072
:1067500000000000dcc2a80060178000010060009b
:106760003000b30060178800e0e2ef000000000096
:106770004f04be0000000600e062ef0000000000d1
:1067800061178000c20f2000828060000100a0001d
:106790006117880064404000e4e2b700dcc2a90051
:1067a00000000000dcc2a80060178000020060004a
:1067b0000010a0006017880030c0b300e4e2b7000a
:1067c000dcc2a90000000000dcc2a800e0e2ef008b
:1067d0000000000060178000020060003000b3007d
:1067e00060178800dca2a900000000000000000083
:1067f000e2c2bf00dca2a8000080fb00000006008f
:10680000881f780000447800e062ef00000000007c
:1068100060178000c10f2000010060000000a00090
:106820006017880064404400e4e2b700dcc2a900bd
:1068300000000000dcc2a8006017800001006000ba
:106840000010a0006017880010c0b300e4e2b70099
:10685000dcc2a90000000000dcc2a80060178000b4
:10686000010060003000b3006017880000c1b30071
:10687000e4e2b700dcc2a90000000000dcc2a8000e
:1068800002003700200320004bfe0700084078007c
:10689000b9ff07000004e000faff3a00e0e2ef0071
:1068a000000000004f04780000000600889fbe0032
:1068b0008a9fbe008c9fbe0080447800e062ef009b
:1068c0000000000060178000c00fb2000000a000b0
:1068d0006017880064c04400e4e2b700dcc2a9008d
:1068e00000000000dcc2a800480ede000145780070
:1068f0008046eb00c80f20001bc0b3000d007800dd
:10690000e0e2b700000000006017800008006000af
:106910000010a000601788000d007800e4e2b700c6
:10692000dcc2a90000000000dcc2a80060178000e3
:10693000080060003000b3006017880020c0b3007a
:10694000e4e2b700dcc2a90000000000dcc2a8003d
:1069500060178000080060000010a0006017880029
:1069600040c0b300e4e2b700dcc2a90000000000b0
:10697000dcc2a80060178000080060003000b3008f
:10698000601788000c007800e4e2b700dcc2a900c0
:1069900000000000dcc2a8000a007800e4e2b700b2
:1069a000dcc2a90000000000dcc2a8006017800063
:1069b000080060000010a000601788000b0078003d
:1069c000e4e2b700dcc2a90000000000dcc2a800bd
:1069d00060178000080060003000b3006017880076
:1069e0000b007800e4e2b700dcc2a9000000000060
:1069f000dcc2a800094078005fff070021c2b30095
:106a0000814f500003003200094078007cff0700ee
:106a1000baff3700e0e2ef00000000004f06be00c2
:106a20004f05be004f04be0000000600881f78001e
:106a300000447800e062ef00000000006017800072
:106a4000c10f2000010060000000a0006017880056
:106a500064404400e4e2b700dcc2a900000000008a
:106a6000dcc2a80060178000010060000010a000d8
:106a70006017880010c0b300e4e2b700dcc2a900d0
:106a800000000000dcc2a800601780000100600068
:106a90003000b3006017880080c0b300e4e2b700a4
:106aa000dcc2a90000000000dcc2a8000200370020
:106ab00020032000c0fd0700084078002eff0700db
:106ac0000004e000faff3a00e0e2ef0000000000fe
:106ad0004f04780000000600889fbe008a9fbe0019
:106ae0008044780081017800820378006140900042
:106af0004800dd00f14090008180fb00010540006e
:106b00008a027800e062ef00000000006017800059
:106b1000c00fb2000000a00060178800e4c5440068
:106b20000b007800e4e2b700dcc2a900000000001e
:106b3000dcc2a8000042eb00c20f200006c2b30076
:106b400004007800e0e2b700000000006017800059
:106b5000020060000010a0006017880006007800a6
:106b6000e4e2b700dcc2a90000000000dcc2a8001b
:106b7000e0e2ef000000000060178000020060000b
:106b80003000b30060178800dca2a90000000000fc
:106b900000000000212e200091407800dca2a80017
:106ba000c808dd00dca2a900000000000000000011
:106bb000e2c2bf00dca2a8000080fb008080400091
:106bc000818f5200deff3e0004007800e0e2b70053
:106bd0000000000060178000020060000010a000ac
:106be00060178800c0c0b300e4e2b700dcc2a900af
:106bf00000000000dcc2a8006017800002006000f6
:106c00003000b300601788000000eb00801f7800a0
:106c100060c07900e4e2b7004f007800dcc2a90050
:106c200000000000dcc2a8000000e800e60f5000f1
:106c3000f6ff3a0060178000c30f200003006000d9
:106c40000010a0006017880040c2b300e4e2b70063
:106c5000dcc2a90000000000dcc2a80060178000b0
:106c6000030060003000b30060178800e0e2ef002e
:106c700000000000dca2a9000000000000000000ed
:106c8000212e200091407800dca2a800c808dd0079
:106c9000dca2a9000000000000000000e2c2bf006a
:106ca000dca2a8000080fb00008440000983fb00f8
:106cb000860043000281200002814000120264002d
:106cc000808120008080400091004200e062ef005f
:106cd0000000000060178000030060000000a000ba
:106ce000601788004808de00e4e2b700dcc2a900b3
:106cf00000000000dcc2a8006017800003006000f4
:106d00000010a0006017880001007800e4e2b700de
:106d1000dcc2a90000000000dcc2a80060178000ef
:106d2000030060003000b300601788001201780093
:106d3000848042000200e800808f50007f0036000f
:106d4000040051000000e80003003a00000278004f
:106d5000800178000d0037008001eb00030278000d
:106d6000801f780063c07b00e4e2b7004f0078002a
:106d7000dcc2a90000000000dcc2a8000402e80098
:106d800084017800840f5000f5ff3a0060178000fe
:106d9000c20f2000020060000000a0006017880001
:106da0008600430080812000e10078004808de0072
:106db000e4e2b700dcc2a90000000000dcc2a800c9
:106dc00060178000020060000010a00060178800bb
:106dd00001007800e4e2b700dcc2a9000000000076
:106de000dcc2a80060178000020060003000b30021
:106df00060178800838f52001700360063c07b0045
:106e0000e4e2b700dcc2a90000000000dcc2a80078
:106e10000402e80084017800848f52000e003600de
:106e2000f6ff37008000eb0001007800801f78003b
:106e300067407800e4e2b7004f007800dcc2a900a8
:106e400000000000dcc2a8008100e800010078001a
:106e5000818f5200f5ff3e000881420060178000dc
:106e6000c10f2000010060000000a0006017880032
:106e70000b007800e4e2b700dcc2a90000000000cb
:106e8000dcc2a80060178000010060000010a000b4
:106e90006017880040c2b300e4e2b700dcc2a9007a
:106ea00000000000dcc2a800601780000100600044
:106eb0003000b300601788004810de00e4e2b7003d
:106ec000dcc2a90000000000dcc2a80002007800bb
:106ed000e4e2b700dcc2a90000000000dcc2a800a8
:106ee00060178000010060000010a000601788009b
:106ef00010c0b300e4e2b700dcc2a900000000004b
:106f0000dcc2a80060178000010060003000b30000
:106f10006017880000c2b300e4e2b700dcc2a90039
:106f200000000000dcc2a800e0e2ef00000000006a
:106f30004f05be004f04be00000006000a00e0003e
:106f4000c5ff3200b7ff3700889fbe008a9fbe0092
:106f50008c9fbe000044780000418000e90f500083
:106f6000f3003600a5822000244180000883fb0046
:106f70008600430040812000e1017800ea004200e1
:106f80000300e8000001eb00808f50003c00360059
:106f9000048051008000e80009003200dca2a90052
:106fa0000000000000000000e2c2bf00dca2a80058
:106fb000805a78000201e800810f5100f7ff3a0083
:106fc000ea81100086004300c081200080804000dc
:106fd0001100780010418800e062ef00000000001e
:106fe00060178000c20f2000020060000000a000b7
:106ff00060178800910078004808de00e4e2b700de
:10700000dcc2a90000000000dcc2a80060178000fc
:10701000020060000010a0006017880001007800e6
:10702000e4e2b700dcc2a90000000000dcc2a80056
:1070300060178000020060003000b3006017880015
:10704000e0e2ef00000000000300e0000a00320070
:107050008000eb00dca2a90000000000000000009e
:10706000e2c2bf00dca2a800805a78008100e800dc
:10707000838f5000f7ff3a00234188000b00370050
:10708000dca2a9000000000000000000e2c2bf0076
:10709000dca2a800805a78000201e800ea0f510043
:1070a000f7ff3a00a00020002428b400a2822000ac
:1070b0001241780082007800010cb2000004200028
:1070c000808f50009a003a00e14561002dc8bf0052
:1070d00070404000e34f500098003e002e48e20010
:1070e00096003a00f1822000914078008180fb00f8
:1070f0008106d100cf08dd0030c8bf000080fb0052
:107100004700dd008080700031c8bf000080fb00b8
:107110000000d1000086700021832000914078009b
:10712000c808dd0033c8bf000080fb008084700009
:10713000e18f540081003600004180006a00500059
:10714000808f54007d003900234180008600430079
:107150004081200061017800838044000200e80043
:10716000808f50003e003600030051008000e80090
:1071700044c520000a00320044c5200004814000bc
:10718000dca2a9000000000000000000e2c2bf0075
:10719000dca2a800005a7800840f5100f8ff3a00e2
:1071a0008181540086004300c0812000808040001f
:1071b0001100780010418800e062ef00000000003c
:1071c00060178000c20f2000020060000000a000d5
:1071d00060178800910078004808de00e4e2b700fc
:1071e000dcc2a90000000000dcc2a800601780001b
:1071f000020060000010a000601788000100780005
:10720000e4e2b700dcc2a90000000000dcc2a80074
:1072100060178000020060003000b3006017880033
:10722000e0e2ef00000000000300e0000a0032008e
:107230008000eb00dca2a9000000000000000000bc
:10724000e2c2bf00dca2a800005a78008100e8007a
:10725000838f5000f7ff3a00234188000c0037006d
:1072600041c5200001814400dca2a900000000000b
:1072700000000000e2c2bf00dca2a8008058780035
:10728000828f5000f8ff3a00090078002428b400eb
:1072900030c3b300544ce3002a003a0070c5b30079
:1072a000554ce30027003a002dc8bf00f04f4000c6
:1072b00005003a008c0078000d00780050fb0700b4
:1072c0002ac0b30020003700ef4f400011003a0001
:1072d00062c52000e25b88008c0078000d00780019
:1072e0005afb07002ac0b30020102000808f5400f2
:1072f0001500360062d52000e25b880001082000fe
:107300008c8040000d00780050fb07002ac0b300bd
:107310000d003700ed4f40000a003a004006200003
:10732000a5fb07000000fe001ac0b30006003700ee
:107330000045eb008a457800030037000045eb006c
:10734000010037001ac0b300f4c2a8000141800058
:107350003041800080804000e8804000314188005a
:107360008044eb0009007800e0e2b7000000000074
:1073700060178000c20f2000020060000000a00023
:107380006017880064404400e4e2b700dcc2a90052
:1073900000000000dcc2a80060178000020060004e
:1073a0000010a0006017880080c2b300e4e2b700bc
:1073b000dcc2a90000000000dcc2a8006017800049
:1073c000020060003000b300601788004808de004b
:1073d000e4e2b700dcc2a90000000000dcc2a800a3
:1073e00001007800e4e2b700dcc2a9000000000060
:1073f000dcc2a80060178000020060000010a0003e
:107400006017880018c0b30008007800e4e2b700f5
:10741000dcc2a90000000000dcc2a80060178000e8
:10742000020060003000b3006017880000c4b300a1
:10743000e4e2b700dcc2a90000000000dcc2a80042
:10744000e24f550016003a002a28ab001400320023
:10745000644040002ae8b7000900780032e8b7002d
:107460000800780033e8b700a2002000a1822000c5
:10747000408320003dfb0700080078003ee8b7008d
:107480000900780092eab700b0c0b30093eab700f1
:1074900042832000c1a82000094078008efd07002b
:1074a000e0e2ef00000000000b04e0000100320009
:1074b0000a14a0000a80fb004f06be004f05be0064
:1074c0004f04be0000000600881f780000447800ca
:1074d000e062ef000000000060178000c00fb20003
:1074e0000000a0006017880064404400e4e2b70098
:1074f000dcc2a90000000000dcc2a800c20f20000e
:1075000064c2b300e062ef0000000000601780007a
:10751000020060000010a0006017880004007800de
:10752000e4e2b700dcc2a90000000000dcc2a80051
:1075300060178000020060003000b3006017880010
:10754000e0e2ef0000000000dca2a9000000000063
:1075500000000000212e200091407800dca2a8004d
:10756000c808dd0041418800dca2a900000000003d
:1075700000000000e2c2bf00dca2a8000080fb0007
:107580000100400040418800b70032008042eb001b
:1075900005007800e0e2b7000000000060178000fe
:1075a000c30f2000030060000010a00060178800d7
:1075b00004007800e4e2b700dcc2a900000000008b
:1075c000dcc2a80060178000030060003000b30038
:1075d0006017880000c3eb0006007800e0e2b70007
:1075e00000000000dca2a900000000000000000074
:1075f000212e200091407800dca2a800c808dd0000
:10760000dca2a9000000000000000000e2c2bf00f0
:10761000dca2a8000080fb00808040004041800088
:10762000808f5000b7ff3a00f4c2a900dca2a90085
:107630000000000000000000212e20009140780092
:10764000dca2a800c808dd0031418800dca2a90046
:107650000000000000000000e2c2bf00dca2a800a1
